{
  "contractName": "BadgeDelivery",
  "abi": [
    {
      "inputs": [
        {
          "internalType": "address",
          "name": "_token",
          "type": "address"
        }
      ],
      "name": "deliverGoldenBadge",
      "outputs": [],
      "stateMutability": "nonpayable",
      "type": "function"
    },
    {
      "inputs": [
        {
          "internalType": "address",
          "name": "_token",
          "type": "address"
        }
      ],
      "name": "deliverSilverBadge",
      "outputs": [],
      "stateMutability": "nonpayable",
      "type": "function"
    },
    {
      "inputs": [
        {
          "internalType": "address",
          "name": "_token",
          "type": "address"
        }
      ],
      "name": "deliverBronzeBadge",
      "outputs": [],
      "stateMutability": "nonpayable",
      "type": "function"
    }
  ],
  "bytecode": "0x608060405234801561001057600080fd5b506102e6806100206000396000f3fe608060405234801561001057600080fd5b50600436106100415760003560e01c80633cd4d05614610046578063d112cb021461008a578063ef32f7ac146100ce575b600080fd5b6100886004803603602081101561005c57600080fd5b81019080803573ffffffffffffffffffffffffffffffffffffffff169060200190929190505050610112565b005b6100cc600480360360208110156100a057600080fd5b81019080803573ffffffffffffffffffffffffffffffffffffffff16906020019092919050505061019c565b005b610110600480360360208110156100e457600080fd5b81019080803573ffffffffffffffffffffffffffffffffffffffff169060200190929190505050610226565b005b60008190508073ffffffffffffffffffffffffffffffffffffffff1663e0d5c084336040518263ffffffff1660e01b8152600401808273ffffffffffffffffffffffffffffffffffffffff168152602001915050600060405180830381600087803b15801561018057600080fd5b505af1158015610194573d6000803e3d6000fd5b505050505050565b60008190508073ffffffffffffffffffffffffffffffffffffffff1663e0d5c084336040518263ffffffff1660e01b8152600401808273ffffffffffffffffffffffffffffffffffffffff168152602001915050600060405180830381600087803b15801561020a57600080fd5b505af115801561021e573d6000803e3d6000fd5b505050505050565b60008190508073ffffffffffffffffffffffffffffffffffffffff1663e0d5c084336040518263ffffffff1660e01b8152600401808273ffffffffffffffffffffffffffffffffffffffff168152602001915050600060405180830381600087803b15801561029457600080fd5b505af11580156102a8573d6000803e3d6000fd5b50505050505056fea26469706673582212209b72b318095b6699f31cf24eb9f7499ec240f83a44bc48d489b2aeb5e7369cfb64736f6c634300060c0033",
  "immutableReferences": {},
  "source": "// SPDX-License-Identifier: MIT\r\npragma solidity ^0.6.0;\r\n\r\nimport \"./GoldenBadge.sol\";\r\nimport \"./SilverBadge.sol\";\r\nimport \"./BronzeBadge.sol\";\r\n\r\ncontract BadgeDelivery {\r\n       \r\n    function deliverGoldenBadge(address _token) public {\r\n      \r\n      GoldenBadge bdg = GoldenBadge(_token);\r\n      bdg.externaltransfer(msg.sender);\r\n    }\r\n    function deliverSilverBadge(address _token) public {\r\n      \r\n      SilverBadge bdg = SilverBadge(_token);\r\n      bdg.externaltransfer(msg.sender);\r\n    }\r\n    function deliverBronzeBadge(address _token) public {\r\n      \r\n      BronzeBadge bdg = BronzeBadge(_token);\r\n      bdg.externaltransfer(msg.sender);\r\n    }\r\n\r\n}",
  "sourcePath": "C:\\Users\\bhava\\Desktop\\Sepolia\\Agro-Connect-Full-Project\\mainFrontend\\contracts\\BadgeDelivery.sol",
  "compiler": {
    "name": "solc",
    "version": "0.6.12+commit.27d51765.Emscripten.clang"
  },
  "schemaVersion": "3.4.10",
  "updatedAt": "2023-04-07T12:02:03.770Z",
  "networkType": "ethereum",
  "devdoc": {
    "kind": "dev",
    "methods": {},
    "version": 1
  },
  "userdoc": {
    "kind": "user",
    "methods": {},
    "version": 1
  }
}