{
  "contractName": "Wallet",
  "abi": [
    {
      "anonymous": false,
      "inputs": [
        {
          "indexed": true,
          "internalType": "address",
          "name": "_farmerAddress",
          "type": "address"
        },
        {
          "indexed": false,
          "internalType": "uint256",
          "name": "_amount",
          "type": "uint256"
        },
        {
          "indexed": false,
          "internalType": "uint256",
          "name": "time",
          "type": "uint256"
        },
        {
          "indexed": false,
          "internalType": "string",
          "name": "_itemName",
          "type": "string"
        }
      ],
      "name": "sentToFarmer",
      "type": "event"
    },
    {
      "stateMutability": "payable",
      "type": "receive",
      "payable": true
    },
    {
      "inputs": [
        {
          "internalType": "address payable",
          "name": "_farmer",
          "type": "address"
        },
        {
          "internalType": "uint256",
          "name": "_amount",
          "type": "uint256"
        },
        {
          "internalType": "string",
          "name": "_itemName",
          "type": "string"
        }
      ],
      "name": "sendToFarmer",
      "outputs": [],
      "stateMutability": "nonpayable",
      "type": "function"
    },
    {
      "inputs": [],
      "name": "viewBalance",
      "outputs": [
        {
          "internalType": "uint256",
          "name": "",
          "type": "uint256"
        }
      ],
      "stateMutability": "view",
      "type": "function",
      "constant": true
    }
  ],
  "bytecode": "0x608060405234801561001057600080fd5b506102a3806100206000396000f3fe60806040526004361061002d5760003560e01c80633ff1e05b146100395780635c534c551461006457610034565b3661003457005b600080fd5b34801561004557600080fd5b5061004e610156565b6040518082815260200191505060405180910390f35b34801561007057600080fd5b506101546004803603606081101561008757600080fd5b81019080803573ffffffffffffffffffffffffffffffffffffffff16906020019092919080359060200190929190803590602001906401000000008111156100ce57600080fd5b8201836020820111156100e057600080fd5b8035906020019184600183028401116401000000008311171561010257600080fd5b91908080601f016020809104026020016040519081016040528093929190818152602001838380828437600081840152601f19601f82011690508083019250505050505050919291929050505061015e565b005b600047905090565b8273ffffffffffffffffffffffffffffffffffffffff166108fc839081150290604051600060405180830381858888f193505050501580156101a4573d6000803e3d6000fd5b508273ffffffffffffffffffffffffffffffffffffffff167ffa1572a7905048326fd9dd3f33eb5c346706886c47259eb8c5a9f624a6a4b2d98342846040518084815260200183815260200180602001828103825283818151815260200191508051906020019080838360005b8381101561022c578082015181840152602081019050610211565b50505050905090810190601f1680156102595780820380516001836020036101000a031916815260200191505b5094505050505060405180910390a250505056fea26469706673582212205b36186acd5f8617574bef0034fe0d5c3d7dfc0004ffca93540789bf8524572264736f6c634300060c0033",
  "immutableReferences": {},
  "source": "pragma solidity ^0.6.0;\r\n\r\ncontract Wallet {\r\n   \r\n    event sentToFarmer(address indexed _farmerAddress,uint256 _amount ,uint time,string _itemName);\r\n    function sendToFarmer (address payable _farmer, uint256 _amount,string memory _itemName) public {\r\n        _farmer.transfer(_amount);\r\n        emit sentToFarmer(_farmer,_amount,block.timestamp,_itemName);\r\n    }\r\n    function viewBalance () public view returns(uint256){\r\n        return address(this).balance;\r\n    }\r\n    receive ()external payable{    \r\n    }\r\n\r\n}",
  "sourcePath": "C:\\Users\\bhava\\Desktop\\Agro-Connect-master\\contracts\\Wallet.sol",
  "compiler": {
    "name": "solc",
    "version": "0.6.12+commit.27d51765.Emscripten.clang"
  },
  "schemaVersion": "3.4.10",
  "updatedAt": "2023-01-19T19:12:51.533Z",
  "networkType": "ethereum",
  "devdoc": {
    "kind": "dev",
    "methods": {},
    "version": 1
  },
  "userdoc": {
    "kind": "user",
    "methods": {},
    "version": 1
  }
}